S0120000546573745F36343470612E73726563A4
S11300000C943E000C9448000C9448000C94480056
S11300100C9448000C9448000C9448000C9448003C
S11300200C9448000C9448000C9448000C9448002C
S11300300C9448000C9448000C9448000C9448001C
S11300400C9448000C9448000C9448000C9448000C
S11300500C9448000C9448000C9448000C944800FC
S11300600C9448000C9448000C9448000C944800EC
S11300700C9448000C9448000C94480011241FBEB2
S1130080CFEFD0E1DEBFCDBF0E944A000C946200E6
S11300900C9400008FEF81B982B912B82FEF33EDC1
S11300A090E3215030409040E1F700C0000082B955
S11300B02FEF33ED90E3215030409040E1F700C042
S10B00C00000EBCFF894FFCF20
S9030000FC
