:020000040000FA
:10000000020E856761735F7265735F6164633A2096
:10001000006761735F72616E67653A2000666C6F9E
:1000200061743A200054656D703A200048756D3A4D
:1000300020002D2D2D2D2D2D2D2D00020D578F45FE
:10004000E4F50C8545128D19751301120EDF751339
:1000500001E5454401F512120EAFAF1422120EF85D
:10006000120EFF120EC9120E5A120EBC120F1902F6
:100070000F0622020E940203BEE86480F8E933E81A
:100080003360110460F0ED33EC337009E8FCE9FDF6
:10009000EAFEEBFF220460DED3EB9FEA9EE99DE8D7
:1000A000C2E78CF0C2F795F0400CE8CCF8E9CDF946
:1000B000EACEFAEBCFFB12038985D0F05804700327
:1000C00020D5B3E80470075002B2D50203C892D518
:1000D000EC0460F7E4CCC0E0C398F8603B9418608F
:1000E00008400DD0E0FB0203A0E4FBFAC9FC802825
:1000F000E830E406E4C9FBE4CAFCE830E305E4C9FF
:10010000CACBFCE854076010F8C3E913F9EA13FA04
:10011000EB13FBEC13FCD8F130F52FC3E49CFCEFA0
:100120009BFFEE9AFEED99FDD0E0FBEF4E4D4C703B
:100130001222DB030203C5EC2CFCEF33FFEE33FE8F
:10014000ED33FDED30E7EB0203A0EF2BFFEE3AFEBF
:10015000ED39FDD0E0FB50130BBB00030203C8EDEB
:1001600013FDEE13FEEF13FFEC13FC0203A0EC4DA6
:100170006011E8497017ED33EC3304600DE4FCFFC7
:10018000FEFD22E933E8330470F80203BE1203894E
:1001900058046009E4CC248150062850090203C8A1
:1001A0002840030203C5C0E0EB4A7044B98006D082
:1001B000E0FB0203B4EF4E701CBD8008EBFFEAFECB
:1001C000E9FD80EBE98DF0A4FEE5F0020257E9CDF0
:1001D000F9EAFEEBFFEF89F0A4FCE5F0CE89F0A48C
:1001E0002EFFE435F0CD89F0A42DFEE435F08067D4
:1001F000EF4E7005BD80D780C3EF8BF0A4ACF0EE5E
:100200008BF0A42CFCE435F0F8EF8AF0A42CE5F098
:1002100038FCE433CB8DF0A42CFCE5F03BF8EE8AFF
:10022000F0A42CFCE5F038F8E433CF89F0A42CFCE2
:10023000E5F038CF3400CE89F0A42FFFE5F03EFE84
:10024000E433C98DF0A42EFEE5F039CD8AF0A42F59
:10025000FFE5F03EFEE43DFD33D0E0FB50070BBB75
:10026000000F0203C8EC2CFCEF33FFEE33FEED333E
:10027000FD0203A00203C8EC5D046005E8590470A8
:10028000030203BE120389580460F6EC4860F2ECE6
:100290007004FDFEFF22C860DB2481C85009C398AA
:1002A000600250060203C59850CAF582E9294B4AFC
:1002B0007005AB820203B475F0007C1A7880C3EF3E
:1002C0009BEE9AED99400DC3EF9BFFEE9AFEED99E0
:1002D000FDE842F0DC23ACF0D0E0FFD0E0FED0E05F
:1002E000FDAB8220E7101BEB60BAEC2CFCEF33FF78
:1002F000EE33FEED33FD0203A0E803F830E705C05E
:10030000F075F000EF2FFFEE33FEED33FD40B83017
:10031000E7C280AA75F020800E75F010800575F098
:10032000087D007E007F003392D530D50312051B77
:10033000EC334010EF33FFEE33FEED33FDEC33FCD6
:10034000D5F0ED22E5F0247EA2D513CC92E7CDCEF8
:10035000FF22EDD2E7CD33EC3392D524814006E481
:10036000FFFEFDFC22FCE4CFCECDCC24E050117486
:10037000FF80EDC3CC13CCCD13CDCE13CECF13CF96
:100380000470F030D5DE02051BE9D2E7C933E8334B
:10039000F892D5EDD2E7CD33EC33FC5002B2D52242
:1003A000EC30E7100FBF000C0EBE00080DBD0004BE
:1003B0000BEB6014A2D5EB13FCED92E7FD2274FF6A
:1003C000FCFDFEFF22E480F8A2D574FF13FC7D80C3
:1003D000E480EFBB010689828A83E0225002E72293
:1003E000BBFE02E32289828A83E49322BB01068951
:1003F000828A83F0225002F722BBFE01F322E88FAB
:10040000F0A4CC8BF0A42CFCE98EF0A42CFC8AF098
:10041000EDA42CFCEA8EF0A4CDA8F08BF0A42DCC9A
:100420003825F0FDE98FF0A42CCD35F0FCEB8EF0F3
:10043000A4FEA9F0EB8FF0A4CFC5F02ECD39FEE4D9
:100440003CFCEAA42DCE35F0FDE43CFC2275F0081E
:10045000758200EF2FFFEE33FECD33CDCC33CCC50C
:100460008233C5829BED9AEC99E58298400CF58227
:10047000EE9BFEED9AFDEC99FC0FD5F0D6E4CEFB99
:10048000E4CDFAE4CCF9A88222B800C1B90059BA87
:10049000002DEC8BF084CFCECDFCE5F0CBF97818B5
:1004A000EF2FFFEE33FEED33FDEC33FCEB33FB10AF
:1004B000D703994004EB99FB0FD8E5E4F9FA2278C9
:1004C00018EF2FFFEE33FEED33FDEC33FCC933C9DB
:1004D00010D7059BE99A4007EC9BFCE99AF90FD8E5
:1004E000E0E4C9FAE4CCFB2275F010EF2FFFEE3305
:1004F000FEED33FDCC33CCC833C810D7079BEC9A44
:10050000E899400AED9BFDEC9AFCE899F80FD5F0CC
:10051000DAE4CDFBE4CCFAE4C8F922C3E49FFFE4BB
:100520009EFEE49DFDE49CFC22EB9FF5F0EA9E42DA
:10053000F0E99D42F0EC6480C864809845F022EBBD
:100540009FF5F0EA9E42F0E99D42F0E89C45F022DA
:10055000E86010ECA2E713FCED13FDEE13FEEF13C1
:10056000FFD8F022D083D082E4937012740193708C
:100570000DA3A393F8740193F5828883E473740246
:10058000936C70127403936D700C7404936E700608
:100590007405936F60DDA3A3A3A3A3A380CAE4F5AE
:1005A0003CF53BF53AF539F540F53FF53EF53D7D37
:1005B0002A7FEE12003EEF75F004A4FFAEF0C007F4
:1005C000C0067D2B7FEE12003EEFC413135403FDD3
:1005D000D0E0FED0E04DFFE48F408E3FF53EF53D8C
:1005E0007BFF7A007903AD3EAC3D120BC17D2B7FC2
:1005F000EE12003EEF540FFFE48F10F50FF50EF5ED
:100600000D7BFF7A007911AE0FAD0EAC0D120BC150
:10061000AC0DAD0EAE0FAF10120564067F000000EA
:1006200000067F00000001067F00000002067F0038
:10063000000003067F00000004068A000000050693
:100640007F00000006068C00000007067F00000007
:1006500008067F0000000906970000000A06A500B2
:1006600000000B067F0000000C068A0000000D064B
:100670007F0000000E067F0000000F000006B9E4B6
:10068000F528F527F526F525802F80227528CD75CC
:1006900027CC75264C801F7528CD7527CC75264C28
:1006A0007525BE8014E4F528F527F5268008E4F5C5
:1006B00028F5277526807525BFAC0DAD0EAE0FAFA2
:1006C0001012056407280000000007280000000140
:1006D000072800000002072800000003073300007D
:1006E0000004074100000005072800000006074E2F
:1006F00000000007075C0000000807280000000950
:1007000007280000000A07280000000B0728000047
:10071000000C07280000000D07280000000E072825
:100720000000000F00000768E4F52CF52BF52AF512
:10073000298035752CCD752BCC752ACC75293D803B
:10074000277433F52CF52BF52A75293F801A752C63
:10075000CD752BCC752A4C7529BF800C752CCD75A9
:100760002BCC752ACC7529BD753000752F60752E80
:10077000F4752D44E4FBFA79C87842AF28AE27AD72
:1007800026AC25120277E4FBFA7980783F12007DCF
:10079000AB30AA2FA92EA82D12016E8F348E338D67
:1007A000328C31E4FBFA79C87842AF2CAE2BAD2AFB
:1007B000AC29120277E4FBFA7980783F12007D8F32
:1007C000388E378D368C35AF40AE3FAD3EAC3DEC0C
:1007D000120314E4FBFAF978C412007DAB34AA3397
:1007E000A932A831120277E4FBFA7980783F12002F
:1007F0007DC004C005C006C00774017E00A81008B3
:100800008005C333CE33CED8F9FDAC06EC12031904
:10081000C004C005C006C0077FBD7E377D067C349E
:10082000AB38AA37A936A83512016ED003D002D052
:1008300001D00012016ED003D002D001D00012010D
:100840006EA804A905AA06AB07E4FFFE7D807C3FE5
:100850001202771203528F448E438D428C412275CF
:100860003927753AE3753B40753CE3E4F53D753E49
:100870002D753F1475407875419C7D257FEE1200E3
:100880003EEF7F00FEC007C0067D267FEE12003ED1
:10089000EFFDD0E0FED0E04DF5828E83AE39AF3A69
:1008A000E4FCFD7B10FAF9F81203FEA804A905AADE
:1008B00006AB07AE83AF82C3EF9BF52CEE9AF52B08
:1008C000E499F52AE498F529AF3FEF3395E0FEFD72
:1008D000FCAB0BAA0AA909A8081203FEE47B64FA80
:1008E000F9F8120DFDAB0BAA0AA909A8081203FE1C
:1008F0007806120550E47B64FAF9F8120DFDC00485
:10090000C005C006C007AF3EEF3395E0FEFDFCAB6F
:100910000BAA0AA909A8081203FEE47B64FAF9F8F5
:10092000120DFDD003D002D001D000EF2BFFEE3A24
:10093000FEED39FDEC38FCE42FFBEE3440FAE43DEB
:10094000F9E43CF8AE3BAF3CE4FCFD1203FE780A50
:10095000120550AB2CAA2BA92AA8291203FE8F300E
:100960008E2F8D2E8C2DE54075F080A4FFAEF0EE1D
:100970003395E08F348E33F532F531AF41EF339557
:10098000E0FEFDFCAB0BAA0AA909A8081203FEE4CD
:100990007B64FAF9F8120DFDEF2534FFEE3533FED6
:1009A000ED3532FDEC3531FC78041205508F348E74
:1009B000338D328C31AF30AE2FAD2EAC2D780E1280
:1009C0000550C004C005C006C007AF30AE2FAD2E25
:1009D000AC2D780E120550D003D002D001D00012F9
:1009E00003FE780A120550AB34AA33A932A831129B
:1009F00003FE78011205508F388E378D368C35E521
:100A0000302538FFE52F3537FEE52E3536FDE52D4F
:100A10003535FC780A120550E47BE87A03F9F812C0
:100A200003FE780C1205508F288E278D268C257F8B
:100A3000A07E867D017C00AB28AA27A926A825D305
:100A4000120529400E7528A0752786752601752583
:100A500000800FAC25EC335009E4F528F527F52686
:100A6000F525AF28AE27AD26AC25E47BE87A03F95F
:100A7000F8120DFD8F288E278D268C25227539675B
:100A8000753A77753B66753C6F753D037D227FEE49
:100A900012003EEF7F00FEC007C0067D237FEE12EE
:100AA000003EEFFDD0E0FED0E04DFDE53A25E0FB55
:100AB000E53933FAED25E0FFEE33FEC3EF9BFFEEA1
:100AC0009AFE3395E08F308E2FF52EF52DAE3BAF8D
:100AD0003CEE3395E0FDFCAB30AA2FA92EA82D12D9
:100AE00003FE780B1205508F348E338D328C31AF6C
:100AF00030AE2FAD2EAC2D7801120550C004C005CC
:100B0000C006C007AF30AE2FAD2EAC2D7801120558
:100B100050D003D002D001D0001203FE780C120591
:100B2000508F388E378D368C35AF3DEF3395E0FEE4
:100B3000EFC4F8540FC868FFEEC454F048FE339574
:100B4000E0FDFCAB38AA37A936A8351203FE780EB3
:100B50001205508F388E378D368C35E5342538F5B3
:100B600028E5333537F527E5323536F526E53135D5
:100B700035F525E47F05FEFDFCAB28AA27A926A8AC
:100B8000251203FEEF2480FFE43EFEE43DFDE43C3D
:100B9000FC78081205508F0B8E0A8D098C08E47BB7
:100BA00064FAF9F8AF0BAE0AAD09AC08120DFD8F6F
:100BB0002C8E2B8D2A8C2922EF3395E0FEFDFC7BB9
:100BC000FF8B458A4689478F4B8E4A8D498C48E476
:100BD000F556F557FDAB450547E547AA46700205B2
:100BE0004614F91203D3FE6007FF120EE90D80E5EB
:100BF000C3E5566480948A5073E47B0AFAF9F8AF2F
:100C00004BAE4AAD49AC48120489EB2430FFAB45EA
:100C10000547E547AA467002054614F9EF1203ECB2
:100C2000E47B0AFAF9F8AF4BAE4AAD49AC4812047E
:100C300089EB2430FF744C2556F8A607AF4BAE4A1B
:100C4000AD49AC48E47B0AFAF9F81204898F4B8E5F
:100C50004A8D498C48E4FFFEFDFCAB4BAA4AA949EA
:100C6000A848C312053F600405568084855657C3C3
:100C7000E55764809480400E744C2557F8E6FF12C7
:100C80000EE9155780E97F0D020EE97524CD752315
:100C90004C7522697521C3120E7320801B75E340C9
:100CA000C281E4FF0FBFFFFCD2813081FDE4FF0F62
:100CB000BF0AFCE4F5E380E212005D120EA27BB6EF
:100CC0007DE07FEE120E477B017D727FEE120E47B4
:100CD000120E417B597D647FEE120E47120E41AF1A
:100CE00024AE23AD22AC211203527BFF7A00791D82
:100CF000120BC1120A7D7A007925120BB812085F17
:100D00007A00792C120BB812059E7BFF7A0079329B
:100D10007F007E007D007C00120BC1B293E4F518C9
:100D2000F517F516F5157FA07E867D017C00AB18C2
:100D3000AA17A916A815C312052950A0E4FAF9F8B4
:100D4000E5182401F518EA3517F517E93516F516F3
:100D5000E83515F51580CFC0E0C0D0C20230C2031F
:100D6000020DE1E5C054F02480606324C0601A24C1
:100D7000E0706A8512C253C2FEA201E43342C2C2CD
:100D8000C5751A01751300805A30C13CE51A602DF3
:100D9000200110E51AB401038519C2E51AB4020353
:100DA0008511C2E51AB40105751A028008E51AB466
:100DB0000203751A00E50C702AF51A8026E50CB4BA
:100DC0000102D2C4C200801BD2C4D2C5801585C224
:100DD00014C200C2C1D2C4D2C4C2008006D20280F2
:100DE00002D20230021053C17F43C180C2C5C2C4C7
:100DF000C2C1C200C202C2C0D0D0D0E032C2D5E867
:100E000030E70FB2D5E4C39BFBE49AFAE499F9E426
:100E100098F8EC30E717B2D5120E33120489E4C308
:100E20009BFBE49AFAE499F9E498F88003120489A8
:100E300030D50DE4C39FFFE49EFEE49DFDE49CFCE1
:100E4000227B257D747FEE750C018F127513018B4B
:100E5000118D19120EDF2000FD22E59154045391EB
:100E6000FB75953875949E75933875929E439104E1
:100E7000429122120EF1120F0D120F11120F1512C4
:100E80000ED4020F1D120072787FE4F6D8FD758132
:100E900057020C8B53C17F43C18053917FC2C5C29F
:100EA0000032759850758920758D2B43884022201B
:100EB00000FDD200D201D2C52000FD22758E3C7506
:100EC000891043881043884022AF88758800758A4E
:100ED000348F8822AF88758800758D2B8F882220EB
:100EE00000FDD200C201D2C5228F993099FDC2996E
:100EF00022E4F5A753D9BF22E4F5A775A50822750A
:100F0000E34075E1052275E68175A8802275C91058
:100F10002243B28022E4F5A92275C1DC2243981055
:010F200022AE
:00000001FF
