:020000040000FA
:100000000205388F08E4F52185082D8D3F753301F1
:10001000120592753301E5084401F52D120562AF12
:1000200034227B257D747FEE7521018F2D75330180
:100030008B248D3F1205922000FD220203CDE59115
:1000400054045391FB75953875949E759338759249
:100050009E4391044291221205A41205AB12057C25
:1000600012003E12056F1205C50205B2E4F5A75352
:10007000D9BF22020547BB010689828A83E022504C
:1000800002E722BBFE02E32289828A83E49322BB39
:10009000010689828A83F0225002F722BBFE01F317
:1000A00022EF8DF0A4A8F0CF8CF0A428CE8DF0A480
:1000B0002EFE22BC000BBE0029EF8DF084FFADF0B8
:1000C00022E4CCF875F008EF2FFFEE33FEEC33FCA2
:1000D000EE9DEC984005FCEE9DFE0FD5F0E9E4CED8
:1000E000FD22EDF8F5F0EE8420D21CFEADF075F0A7
:1000F00008EF2FFFED33FD4007985006D5F0F222B0
:10010000C398FD0FD5F0EA22C2D5EC30E709B2D58D
:10011000E4C39DFDE49CFCEE30E715B2D5E4C39F3B
:10012000FFE49EFE1200B3C3E49DFDE49CFC80034B
:100130001200B330D507C3E49FFFE49EFE22E88F90
:10014000F0A4CC8BF0A42CFCE98EF0A42CFC8AF05B
:10015000EDA42CFCEA8EF0A4CDA8F08BF0A42DCC5D
:100160003825F0FDE98FF0A42CCD35F0FCEB8EF0B6
:10017000A4FEA9F0EB8FF0A4CFC5F02ECD39FEE49C
:100180003CFCEAA42DCE35F0FDE43CFC22EB9FF5CF
:10019000F0EA9E42F0E99D42F0EC6480C8648098E9
:1001A00045F022E86010ECA2E713FCED13FDEE131E
:1001B000FEEF13FFD8F022E8600FEFC333FFEE33FA
:1001C000FEED33FDEC33FCD8F1227D227FEE1200F0
:1001D00003E4FCFDFE780C1201B7C004C005C006A4
:1001E000C0077D237FEE120003EF75F010A4FFAE71
:1001F000F0EE3395E0FDFCD003D002D001D000EB4F
:100200004FF52CEA4EF52BE94DF52AE84CF529AFD0
:100210002CAE2BAD2AFC78031201A3AB07AA06AEC5
:100220002EAF2FE4FCFD78011201B7C3EB9FF53E22
:10023000EA9EF53DAE30AF31AB07AA06EA3395E052
:10024000F9F8AE3DAF3EEE3395E0FDFC12013E788D
:100250000B1201A38F438E428D418C40E53DA2E7F6
:1002600013FCE53E13FDFFAE041200A1EF780CCEA7
:10027000A2E713CE13D8F8F5458E44AF32EF33958D
:10028000E0FEFDFC78041201B7A804A905AA06AB9C
:1002900007AE44AF45EE3395E0FDFC12013E780E0B
:1002A0001201A38E448F45EE3395E0FDFCEF25430C
:1002B000F53CEE3542F53BED3541F53AEC3540F590
:1002C00039E47F05FEFDFCAB3CAA3BA93AA83912F4
:1002D000013EEF2480FFE43EFEE43DFDE43CFC787B
:1002E000081201A38E228F237C007D641201088EE8
:1002F000228F232212051620801B75E340C281E461
:10030000FF0FBFFFFCD2813081FDE4FF0FBF0AFC6D
:10031000E4F5E380E21200571205557BB67DE07FDD
:10032000EE1200287B017D727FEE1200281200225F
:100330007DED7FEE1200038F257DEC7FEE12000332
:10034000EF7F00FEC007C0067DEB7FEE120003EFDB
:10035000FDD0E0F526D0E04DF5277DEE7FEE1200D2
:10036000038F28752E67752F7775306675316F7519
:1003700032031200221201CAAC06AD077BFF7A05D8
:1003800079281204737BFF7A05792FE4FDFC1204AF
:1003900073B293E4F538F537F536F5357FA07E86F0
:1003A0007D017C00AB38AA37A936A835C312018D70
:1003B00050C0E4FAF9F8E5382401F538EA3537F5A4
:1003C00037E93536F536E83535F53580CFC0E0C04C
:1003D000D0C20230C203020457E5C054F02480604A
:1003E0006324C0601A24E0706A852DC253C2FEA245
:1003F00001E43342C2C2C5751901753300805A3019
:10040000C13CE519602D200110E519B40103853FB9
:10041000C2E519B402038524C2E519B401057519B2
:10042000028008E519B40203751900E521702AF568
:10043000198026E521B40102D2C4C200801BD2C4B7
:10044000D2C5801585C234C200C2C1D2C4D2C4C2D2
:10045000008006D2028002D20230021053C17F43D4
:10046000C180C2C5C2C4C2C1C200C202C2C0D0D013
:10047000D0E0328B088A09890A8C0B8D0CE4F517C1
:10048000F518FDAB08050AE50AAA0970020509146A
:10049000F9120076FE6007FF12059C0D80E5C3E5AA
:1004A000176480948A5050AE0BAF0C7C007D0A120A
:1004B00000B3ED2430FFAB08050AE50AAA09700273
:1004C000050914F9EF12008FAE0BAF0C7C007D0A0A
:1004D0001200B3ED2430FF740D2517F8A607AE0BFC
:1004E000AF0C7C007D0A1200B38E0B8F0CE50C451F
:1004F0000B6004051780A7851718C3E5186480945E
:1005000080400E740D2518F8E6FF12059C15188022
:10051000E97F0D02059C12006C1205B91205BD128F
:1005200005C11205870205C954656D703A20002D7A
:100530002D2D2D2D2D2D2D001205CD787FE4F6D8F3
:10054000FD7581450202F453C17F43C18053917F01
:10055000C2C5C20032759850758920758D2B4388AD
:1005600040222000FDD200D201D2C52000FD22751C
:100570008E3C75891043881043884022AF88758867
:1005800000758A348F8822AF88758800758D2B8F0F
:1005900088222000FDD200C201D2C5228F99309955
:1005A000FDC29922E4F5A775A5082275E34075E11F
:1005B000052275E68175A8802275C9102243B28094
:0E05C00022E4F5A92275C1DC22439810222204
:00000001FF
