:020000040000FA
:1000000002101F54656D703A200048756D3A20004B
:100010004761733A2000434F323A20002D2D2D2D99
:0A0020002D2D2D2D0075C910222290
:10002B000210AE759850758920758D2B4388402230
:10003B00020D4E8F76C202E4F5378576478D4E75ED
:10004B00480112127C754801E5764401F5471212FE
:10005B004CAF4922052604138B0001C10104430058
:10006B000000010043B2802202123E0203BEE8648C
:10007B0080F8E933E83360110460F0ED33EC337052
:10008B0009E8FCE9FDEAFEEBFF220460DED3EB9FFF
:10009B00EA9EE99DE8C2E78CF0C2F795F0400CE8C8
:1000AB00CCF8E9CDF9EACEFAEBCFFB12038985D078
:1000BB00F05804700320D5B3E80470075002B2D592
:1000CB000203C892D5EC0460F7E4CCC0E0C398F807
:1000DB00603B94186008400DD0E0FB0203A0E4FBEA
:1000EB00FAC9FC8028E830E406E4C9FBE4CAFCE862
:1000FB0030E305E4C9CACBFCE854076010F8C3E948
:10010B0013F9EA13FAEB13FBEC13FCD8F130F52FD0
:10011B00C3E49CFCEF9BFFEE9AFEED99FDD0E0FB58
:10012B00EF4E4D4C701222DB030203C5EC2CFCEF9F
:10013B0033FFEE33FEED33FDED30E7EB0203A0EFC3
:10014B002BFFEE3AFEED39FDD0E0FB50130BBB005D
:10015B00030203C8ED13FDEE13FEEF13FFEC13FCCC
:10016B000203A0EC4D6011E8497017ED33EC33043A
:10017B00600DE4FCFFFEFD22E933E8330470F80266
:10018B0003BE12038958046009E4CC24815006286D
:10019B0050090203C82840030203C5C0E0EB4A70B4
:1001AB0044B98006D0E0FB0203B4EF4E701CBD8057
:1001BB0008EBFFEAFEE9FD80EBE98DF0A4FEE5F02C
:1001CB00020257E9CDF9EAFEEBFFEF89F0A4FCE55B
:1001DB00F0CE89F0A42EFFE435F0CD89F0A42DFEEE
:1001EB00E435F08067EF4E7005BD80D780C3EF8B91
:1001FB00F0A4ACF0EE8BF0A42CFCE435F0F8EF8A15
:10020B00F0A42CE5F038FCE433CB8DF0A42CFCE50A
:10021B00F03BF8EE8AF0A42CFCE5F038F8E433CF91
:10022B0089F0A42CFCE5F038CF3400CE89F0A42F54
:10023B00FFE5F03EFEE433C98DF0A42EFEE5F03968
:10024B00CD8AF0A42FFFE5F03EFEE43DFD33D0E078
:10025B00FB50070BBB000F0203C8EC2CFCEF33FF6A
:10026B00EE33FEED33FD0203A00203C8EC5D046028
:10027B0005E8590470030203BE120389580460F6A3
:10028B00EC4860F2EC7004FDFEFF22C860DB2481B9
:10029B00C85009C398600250060203C59850CAF5AE
:1002AB0082E9294B4A7005AB820203B475F0007CDE
:1002BB001A7880C3EF9BEE9AED99400DC3EF9BFF2D
:1002CB00EE9AFEED99FDE842F0DC23ACF0D0E0FFB6
:1002DB00D0E0FED0E0FDAB8220E7101BEB60BAEC68
:1002EB002CFCEF33FFEE33FEED33FD0203A0E803EE
:1002FB00F830E705C0F075F000EF2FFFEE33FEEDA1
:10030B0033FD40B830E7C280AA75F020800E75F03F
:10031B0010800575F0087D007E007F003392D5308C
:10032B00D50312052DEC334010EF33FFEE33FEED0A
:10033B0033FDEC33FCD5F0ED22E5F0247EA2D51392
:10034B00CC92E7CDCEFF22EDD2E7CD33EC3392D575
:10035B0024814006E4FFFEFDFC22FCE4CFCECDCC95
:10036B0024E0501174FF80EDC3CC13CCCD13CDCE54
:10037B0013CECF13CF0470F030D5DE02052DE9D2AA
:10038B00E7C933E833F892D5EDD2E7CD33EC33FC44
:10039B005002B2D522EC30E7100FBF000C0EBE009E
:1003AB00080DBD00040BEB6014A2D5EB13FCED9212
:1003BB00E7FD2274FFFCFDFEFF22E480F8A2D5745A
:1003CB00FF13FC7D80E480EFBB010689828A83E00A
:1003DB00225002E722BBFE02E32289828A83E49346
:1003EB0022BB010689828A83F0225002F722BBFED0
:1003FB0001F322EF8DF0A4A8F0CF8CF0A428CE8DC2
:10040B00F0A42EFE22E88FF0A4CC8BF0A42CFCE9F8
:10041B008EF0A42CFC8AF0EDA42CFCEA8EF0A4CD7B
:10042B00A8F08BF0A42DCC3825F0FDE98FF0A42C8F
:10043B00CD35F0FCEB8EF0A4FEA9F0EB8FF0A4CF42
:10044B00C5F02ECD39FEE43CFCEAA42DCE35F0FDF3
:10045B00E43CFC2275F008758200EF2FFFEE33FEB3
:10046B00CD33CDCC33CCC58233C5829BED9AEC9981
:10047B00E58298400CF582EE9BFEED9AFDEC99FC23
:10048B000FD5F0D6E4CEFBE4CDFAE4CCF9A882226A
:10049B00B800C1B90059BA002DEC8BF084CFCECD8A
:1004AB00FCE5F0CBF97818EF2FFFEE33FEED33FDC3
:1004BB00EC33FCEB33FB10D703994004EB99FB0FA8
:1004CB00D8E5E4F9FA227818EF2FFFEE33FEED337F
:1004DB00FDEC33FCC933C910D7059BE99A4007ECF7
:1004EB009BFCE99AF90FD8E0E4C9FAE4CCFB22753E
:1004FB00F010EF2FFFEE33FEED33FDCC33CCC833D2
:10050B00C810D7079BEC9AE899400AED9BFDEC9A33
:10051B00FCE899F80FD5F0DAE4CDFBE4CCFAE4C8AB
:10052B00F922C3E49FFFE49EFEE49DFDE49CFC22C4
:10053B00EB9FF5F0EA9E42F0E99D42F0EC6480C837
:10054B0064809845F022EB9FF5F0EA9E42F0E99D1E
:10055B0042F0E89C45F022E86010ECA2E713FCEDBA
:10056B0013FDEE13FEEF13FFD8F022E8600FEFC37D
:10057B0033FFEE33FEED33FDEC33FCD8F1227D047B
:10058B007FEE12003EEF54F0FFE4C4F854F0C8685D
:10059B00F563EFC4540F48F564E4F568F567F56649
:1005AB00F5657D2A7FEE12003EEF75F004A4FFAED9
:1005BB00F0C007C0067D2B7FEE12003E7E00EF7869
:1005CB0006CEC313CE13D8F9FDD0E04EFED0E04DCE
:1005DB00FFE48F688E67F566F5657D2B7FEE120065
:1005EB003EEF540FFFE48F3FF53EF53DF53C7F05A5
:1005FB00FEFDFCAB3FAA3EA93DA83CC312053B60E8
:10060B000EE47F0DFEFDFCA83CC312053B700AE413
:10061B00F552F551755080805BE47F07FEFDFCAB16
:10062B003FAA3EA93DA83CC312053B700B7552CDAA
:10063B007551CC75504C803CE47F0AFEFDFCAB3F02
:10064B00AA3EA93DA83CC312053B700E7552CD7551
:10065B0051CC75504C754FBE8028E47F0BFEFDFCD2
:10066B00AB3FAA3EA93DA83CC312053B700BF5520C
:10067B00F551F550754FBF8009E4F552F551F55022
:10068B00F54FE47F04FEFDFCAB3FAA3EA93DA83C21
:10069B00C312053B700E7556CD7555CC7554CC7584
:1006AB00533D806EE47F05FEFDFCAB3FAA3EA93DAA
:1006BB00A83CC312053B700D7433F556F555F55434
:1006CB0075533F804DE47F07FEFDFCAB3FAA3EA96F
:1006DB003DA83CC312053B700E7556CD7555CC75B8
:1006EB00544C7553BF802BE47F08FEFDFCAB3FAA37
:1006FB003EA93DA83CC312053B700E7556CD7555F2
:10070B00CC7554CC7553BD8009E4F556F555F554AD
:10071B00F553AC63AD64E4120319E4FBFA79A078EA
:10072B004012016E7B007A8079A7784412007D8F8E
:10073B005A8E598D588C57E4FBFA79C87842AF52D0
:10074B00AE51AD50AC4F120277E4FBFA7980783F93
:10075B0012007DAB5AAA59A958A85712016E8F5E89
:10076B008E5D8D5C8C5BE4FBFA79C87842AF56AE3C
:10077B0055AD54AC53120277E4FBFA7980783F12F3
:10078B00007D8F628E618D608C5FAF68AE67AD66EA
:10079B00AC65EC120314E4FBFAF978C412007DABE0
:1007AB005EAA5DA95CA85B120277E4FBFA798078FC
:1007BB003F12007DC004C005C006C00774017E0057
:1007CB00A83F088005C333CE33CED8F9FDAC06EC79
:1007DB00120319C004C005C006C0077FBD7E377D5C
:1007EB00067C34AB62AA61A960A85F12016ED003CC
:1007FB00D002D001D00012016ED003D002D001D0B4
:10080B000012016EA804A905AA06AB07E4FFFE7D42
:10081B00807C3F1202771203528F6C8E6B8D6A8C29
:10082B0069AF6CAE6BAD6AAC6922754F277550E33F
:10083B007551407552E3E4F55375542D7555147588
:10084B00567875579C7D257FEE12003EEF7F00FE9C
:10085B00C007C0067D267FEE12003EEFFDD0E0F50F
:10086B0074D0E04DF575AE4FAF50E4FCFD7B10FA44
:10087B00F9F8120410A804A905AA06AB07AE74AFC9
:10088B0075C3EF9BF55BEE9AF55AE499F559E4982D
:10089B00F558AF55EF3395E0FEFDFCAB25AA24A927
:1008AB0023A822120410E47B64FAF9F8121183AB2B
:1008BB0025AA24A923A8221204107806120562E4A3
:1008CB007B64FAF9F8121183C004C005C006C00797
:1008DB00AF54EF3395E0FEFDFCAB25AA24A923A86A
:1008EB0022120410E47B64FAF9F8121183D003D0BE
:1008FB0002D001D000EF2BFFEE3AFEED39FDEC38C4
:10090B00FCE42FFBEE3440FAE43DF9E43CF8AE5145
:10091B00AF52E4FCFD120410780A1205628F5F8E51
:10092B005E8D5D8C5CAF5FAE5EAD5DAC5CAB5BAAB0
:10093B005AA959A8581204108F638E628D618C606E
:10094B00AF56E4FCFDFE78071205768F678E668D39
:10095B00658C64AF57EF3395E0FEFDFCAB25AA2405
:10096B00A923A822120410E47B64FAF9F81211836C
:10097B00EF2567FFEE3566FEED3565FDEC3564FC66
:10098B0078041205628F678E668D658C64AF63AEDB
:10099B0062AD61AC60780E120562C004C005C00682
:1009AB00C007AF63AE62AD61AC60780E120562D06A
:1009BB0003D002D001D000120410780A1205628F06
:1009CB006B8E6A8D698C68AF6BAE6AAD69AC68ABC8
:1009DB0067AA66A965A86412041078011205628FD4
:1009EB006F8E6E8D6D8C6CE563256FFFE562356EDA
:1009FB00FEE561356DFDE560356CFC780A1205622C
:100A0B00E47BE87A03F9F8120410780C1205628F74
:100A1B00738E728D718C707FA07E867D017C00AB96
:100A2B0073AA72A971A870D312053B400E7573A0FF
:100A3B007572867571017570008015AF73AE72ADEE
:100A4B0071AC70EC335009E4F573F572F571F57018
:100A5B00AF73AE72AD71AC70E47BE87A03F9F81248
:100A6B0011838F738E728D718C70AF73227D027FA9
:100A7B00EE12003EEF5430FFE4C4F854F0C868F5B2
:100A8B0063EFC4540F48F564E4FD7FEE12003E8F14
:100A9B006575667C7567D37568E775693E756F011B
:100AAB0075702CD3E5709490E56F6480948140064B
:100ABB00756F01757090AF69E4FCFDFEAB25AA2440
:100ACB00A923A822120410E47BE87A03F9F8121187
:100ADB0083E4FB7A01F9F81204108F528E518D507A
:100AEB008C4FAE67AF68EF2499FBEE3459FAE434C0
:100AFB0002F9E433F8AE6FAF70EE3395E0FDFC1204
:100B0B000410E47B05FAF9F8120410E47B64FAF99B
:100B1B00F8121183E42FFFE43EFEED3432FDE43C8A
:100B2B00FCE47B0AFAF9F8121183A804A905AA06BA
:100B3B00AB07AF66EF2410FFE43403FEE4FCFD12B9
:100B4B0004108F568E558D548C53E47B02FAF9F8B2
:100B5B00AF56AE55AD54AC53121183EF2552F55A27
:100B6B00EE3551F559ED3550F558EC354FF557E558
:100B7B00642404FFE43563AB07FAE4F9F8AF5AAE2B
:100B8B0059AD58AC571211838F5E8E5D8D5C8C5BAB
:100B9B00AF65EF3395E0FE7C007D831203FEEE33F1
:100BAB0095E0FDFCE42FF562E43EF561ED3401F5D3
:100BBB0060E43CF55FAB62AA61A960A85FAF5EAE73
:100BCB005DAD5CAC5B121183EF2406FFEE34FFFED0
:100BDB00ED34FFFDEC34FFFCE47B22FAF9F8120450
:100BEB00108F6E8E6D8D6C8C6BE56E2432FFE43541
:100BFB006DFEE4356CFDE4356BFCE47B64FAF9F8CF
:100C0B001211838F6AAF6A22756367756477756596
:100C1B006675666F7567037D227FEE12003EEF7F70
:100C2B0000FEC007C0067D237FEE12003EEFFDD015
:100C3B00E0FED0E04DFDE56425E0FBE56333FAED26
:100C4B0025E0FFEE33FEC3EF9BFFEE9AFE3395E0FC
:100C5B008F5A8E59F558F557AE65AF66EE3395E062
:100C6B00FDFCAB5AAA59A958A857120410780B12BD
:100C7B0005628F5E8E5D8D5C8C5BAF5AAE59AD5845
:100C8B00AC577801120562C004C005C006C007AF9F
:100C9B005AAE59AD58AC577801120562D003D00249
:100CAB00D001D000120410780C1205628F628E6195
:100CBB008D608C5FAF67EF3395E0FEEFC4F8540F98
:100CCB00C868FFEEC454F048FE3395E0FDFCAB6200
:100CDB00AA61A960A85F120410780E1205628F62D8
:100CEB008E618D608C5FE55E2562F552E55D356149
:100CFB00F551E55C3560F550E55B355FF54FE47F0D
:100D0B0005FEFDFCAB52AA51A950A84F120410EFDF
:100D1B002480FFE43EFEE43DFDE43CFC7808120534
:100D2B00628F258E248D238C22E47B64FAF9F8AF35
:100D3B0025AE24AD23AC221211838F568E558D54C4
:100D4B008C5322C0E0C0D075D000C000C007C204D5
:100D5B0030C203020E44E5C054F024807003020D30
:100D6B00FE24C0601E24E06003020E408547C25380
:100D7B00C2FEA203E43342C2C2C575080175480026
:100D8B00020E4630C167E50860583002223003037B
:100D9B00020E46E521D39400400F740595212426BD
:100DAB00F8E6F5C21521020E46750800020E463014
:100DBB000203020E46200310E508B40103854EC260
:100DCB00E508B402038542C2E508B40105750802C3
:100DDB008008E508B40203750800E537705DF50877
:100DEB008059E537B40102D2C4C200804ED2C4D2BE
:100DFB00C58048300230E521D394004021E521B471
:100E0B00020AAFC2EF754100F540800CE521B40139
:100E1B0007AFC27540008F41D2C11521801DC200A2
:100E2B00C2C1D2C4801585C249C200C2C1D2C4D2CC
:100E3B00C4C2008006D2048002D20430041053C115
:100E4B007F43C180C2C5C2C4C2C1C200C204C2C0FA
:100E5B00D007D000D0D0D0E03212121420801B75F6
:100E6B00E340C281E4FF0FBFFFFCD2813081FDE480
:100E7B00FF0FBF0AFCE4F5E380E212122912002EE9
:100E8B007BB67DE07FEE1211CD7B017D727FEE1282
:100E9B0011CD1211C77B597D647FEE1211CD30013C
:100EAB00FDC2011211C7120C13EF3395E08F2EF513
:100EBB002DF52CF52B120835EF3395E08F32F531EC
:100ECB00F530F52F120A78AB077D5A7FEE1211CD54
:100EDB001205898F368E358D348C337B107D717F67
:100EEB00EE1211CD121128E48F3B8E3AF539F538FD
:100EFB007BFF7A007903AF2EAE2DAD2CAC2B120FEE
:100F0B00557BFF7A00790AAF32AE31AD30AC2F1280
:100F1B000F557BFF7A007910AF36AE35AD34AC335D
:100F2B00120F557BFF7A007916AE40AF41E4FCFD02
:100F3B00120F557BFF7A00791C7F007E007D007CB1
:100F4B0000120F55121128020EA98B4F8A5089518E
:100F5B008F558E548D538C52E4F560F561FDAB4F7C
:100F6B000551E551AA507002055014F91203D3FE36
:100F7B006007FF1212860D80E5C3E5606480948ADA
:100F8B005073E47B0AFAF9F8AF55AE54AD53AC523B
:100F9B0012049BEB2430FFAB4F0551E551AA507067
:100FAB0002055014F9EF1203ECE47B0AFAF9F8AFDF
:100FBB0055AE54AD53AC5212049BEB2430FF745618
:100FCB002560F8A607AF55AE54AD53AC52E47B0A7F
:100FDB00FAF9F812049B8F558E548D538C52E4FF03
:100FEB00FEFDFCAB55AA54A953A852C31205516080
:100FFB000405608084856061C3E5616480948040F2
:10100B000E74562561F8E6FF121286156180E97F92
:10101B000D021286120029787FE4F6D8FD758176D1
:10102B00021069020E64E493A3F8E493A34003F661
:10103B008001F208DFF48029E493A3F85407240C11
:10104B00C8C333C4540F4420C8834004F4568001F2
:10105B0046F6DFE4800B010204081020408090006C
:10106B005FE47E019360BCA3FF543F30E509541F3E
:10107B00FEE493A360010ECF54C025E060A840B8F6
:10108B00E493A3FAE493A3F8E493A3C8C582C8CA74
:10109B00C583CAF0A3C8C582C8CAC583CADFE9DE47
:1010AB00E780BEC0E0C0F0C083C082C0D075D00066
:1010BB00C000C001C002C003C004C005C006C00709
:1010CB00E47F20FEFDFCAB46AA45A944A843D312FE
:1010DB0005514012D201B293754601754500754416
:1010EB00007543008019AF46AE45AD44AC43EF24C9
:1010FB0001F546E43EF545E43DF544E43CF5435348
:10110B00C87FD007D006D005D004D003D002D001C1
:10111B00D000D0D0D082D083D0F0D0E032E4F552E2
:10112B00F551F550F54FD20275210575472A7548D3
:10113B000112127C7FA07E867D017C00AB52AA51EE
:10114B00A950A84FC312053B501BE4FAF9F8E5521E
:10115B002401F552EA3551F551E93550F550E83592
:10116B004FF54F80CFD20275210475480175472B7F
:10117B0012124CAE40AF4122C2D5E830E70FB2D5C8
:10118B00E4C39BFBE49AFAE499F9E498F8EC30E7B2
:10119B0017B2D51211B912049BE4C39BFBE49AFA64
:1011AB00E499F9E498F8800312049B30D50DE4C35D
:1011BB009FFFE49EFEE49DFDE49CFC227B257D7459
:1011CB007FEEC2027537018F477548018B428D4EFA
:1011DB0012127C2000FD22E59154045391FB75956E
:1011EB003875949E75933875929E43910442912263
:1011FB00E5C8540453C8FB75CDFF75CCFF75CB0602
:10120B0075CAC543C80442C82212128E1200251299
:10121B00006F1212AA1212711211FB0212B21212E9
:10122B009512129C1212661211E21212591212AE80
:10123B000212A353C17F43C18053917FC2C5C20029
:10124B00322000FDD200D203D2C52000FD22758EC4
:10125B000C75891043881043884022AF887588002D
:10126B00758A348F8822AF88758800758D2B8F888F
:10127B00222000FDD200C203D2C5228F993099FDE6
:10128B00C29922E4F5A753D9BF22E4F5A775A508A7
:10129B002275E34075E1052275E68175A8A022E46D
:0B12AB00F5A92275C1DC224398102237
:00000001FF
