S00C00004D61696E2E7372656393
S11300000C9434000C943E000C943E000C943E007E
S11300100C943E000C943E000C943E000C943E0064
S11300200C943E000C943E000C943E000C943E0054
S11300300C943E000C943E000C943E000C943E0044
S11300400C943E000C943E000C943E000C943E0034
S11300500C943E000C943E000C943E000C943E0024
S11300600C943E000C943E0011241FBECFEFD8E048
S1130070DEBFCDBF0E9453000C9462000C940000BC
S1130080E0ECF0E0908195FFFDCF8093C6000895E9
S11300909093C5008093C40086E08093C20088E1F9
S11300A08093C100089587E690E00E94480088E4A8
S11300B090E00E94400087EA91E60197F1F700C0C2
S10B00C00000F9CFF894FFCF12
S9030000FC
