:100000000C9434000C9451000C9451000C94510049
:100010000C9451000C9451000C9451000C9451001C
:100020000C9451000C9451000C9451000C94A301B9
:100030000C9451000C9451000C9451000C945100FC
:100040000C9451000C9451000C9451000C945100EC
:100050000C9451000C9451000C9451000C945100DC
:100060000C9451000C94510011241FBECFEFD8E026
:10007000DEBFCDBF21E0A6E0B1E001C01D92AA30F5
:10008000B207E1F711E0A0E0B1E0E2E4F9E002C07C
:1000900005900D92A630B107D9F70E947E010C940D
:1000A0009F040C9400008CE08093B8000895ECEB62
:1000B000F0E0108294EA908390819923ECF790917C
:1000C000B900987F9830A1F48093BB0084E88093B6
:1000D000BC00ECEBF0E080818823ECF79091B90054
:1000E000987F983139F081E0903429F480E00895C8
:1000F00081E0089580E008958093BB0084E88093B8
:10010000BC00ECEBF0E080818823ECF79091B90023
:10011000987F81E0983209F480E0089584EC809320
:10012000BC00ECEBF0E080818823ECF78091BB0011
:10013000089584E88093BC00ECEBF0E08081882394
:10014000ECF78091BB000895CF92DF92FF920F935E
:100150001F93CF93DF93C62F6A0189010E94570036
:10016000F82E811115C08C2F0E947C0001151105FD
:1001700059F0E6010C0D1D1D89910E947C00811132
:100180000AC0C017D107C1F784E98093BC0005C03D
:10019000FF24F39402C0FF24F3948F2DDF91CF91BD
:1001A0001F910F91FF90DF90CF900895AF92BF9273
:1001B000DF92EF92FF920F931F93CF93DF93182F4D
:1001C000062F5A01E9010E945700811122C0802F99
:1001D0000E947C00812F81600E945700D82E8111DF
:1001E0001BC08E010150110951F0E5017501E00EAF
:1001F000F11E0E948E008993EC16FD06D1F7E501F1
:10020000C00FD11F0E949900888384E98093BC00AD
:1002100005C0DD24D39402C0DD24D3948D2DDF915D
:10022000CF911F910F91FF90EF90DF90BF90AF9013
:100230000895E0ECF0E0908195FFFDCF8093C6003B
:100240000895DF92EF92FF920F931F93CF93DF9366
:10025000D62ECAE0D0E00F2EFAE0EF2EF12CF02DD2
:10026000B7010E945603062F172FC0960E9419014E
:10027000802F912F009711F0219791F78D2D90E00D
:100280000E941901DF91CF911F910F91FF90EF9084
:10029000DF9008959093C5008093C40086E080931A
:1002A000C20088E18093C100089580E480937C00BF
:1002B00087E880937A00089582E080936F008DE054
:1002C0008093810089E09DE390938900809388006A
:1002D00078940895ECE7F0E09081987F8770892BFF
:1002E0008083EAE7F0E0808180648083808186FDFE
:1002F000FDCF809178009091790008950E9455017A
:1003000087E690E00E944A010E945C010E9453002F
:1003100081E090E00E947E032FEF31EE44E0215017
:1003200030404040E1F700C000002FE2FC01208394
:1003300021E030E0AC0160E280E30E94A40081E0B3
:1003400084B985B9FFCF1F920F920FB60F92112477
:100350002F933F934F935F936F937F938F939F93CD
:10036000AF93BF93CF93DF93EF93FF9381E084B973
:1003700015B82AE02A95F1F700C085B98AE18A9577
:10038000F1F700C015B814B8189947C088EE93E08B
:1003900025E02A95F1F7000018993FC00197C1F7B1
:1003A0003CC060E070E085E38A95F1F700006F5F84
:1003B0007F4F189B04C0683A91E67907A1F7072E92
:1003C000000C880B990B0E945D022EE03DE242E397
:1003D0005EE30E94C1020E942502DC01CB0161E6BE
:1003E0000E94210183E00E946A0162E60E942101CD
:1003F00081E090E00E947E03EC0121E030E0AC015E
:1004000069E280E30E94D600888163E690E00E9462
:100410002101CE010E94160405C01899C2CF60E0E8
:1004200070E0CDCFFF91EF91DF91CF91BF91AF9170
:100430009F918F917F916F915F914F913F912F91FC
:100440000F900FBE0F901F9018950E942C02689479
:10045000B1110C94BB0208950E94A00288F09F572E
:1004600098F0B92F9927B751B0F0E1F0660F771FD8
:10047000881F991F1AF0BA95C9F714C0B13091F0CE
:100480000E94BA02B1E008950C94BA02672F782F47
:100490008827B85F39F0B93FCCF386957795679593
:1004A000B395D9F73EF490958095709561957F4FFF
:1004B0008F4F9F4F0895E89409C097FB3EF49095A5
:1004C0008095709561957F4F8F4F9F4F9923A9F02D
:1004D000F92F96E9BB279395F695879577956795BC
:1004E000B795F111F8CFFAF4BB0F11F460FF1BC000
:1004F0006F5F7F4F8F4F9F4F16C0882311F096E993
:1005000011C0772321F09EE8872F762F05C0662340
:1005100071F096E8862F70E060E02AF09A95660FF9
:10052000771F881FDAF7880F9695879597F90895B2
:1005300057FD9058440F551F59F05F3F71F0479594
:10054000880F97FB991F61F09F3F79F08795089579
:10055000121613061406551FF2CF4695F1DF08C098
:10056000161617061806991FF1CF869571056105B5
:1005700008940895E894BB2766277727CB0197F95D
:1005800008950E94D4020C9445030E94370338F06A
:100590000E943E0320F0952311F00C942E030C943E
:1005A000340311240C94BB020E94980270F3959FAF
:1005B000C1F3950F50E0551F629FF001729FBB275A
:1005C000F00DB11D639FAA27F00DB11DAA1F649FF6
:1005D0006627B00DA11D661F829F2227B00DA11DA9
:1005E000621F739FB00DA11D621F839FA00D611D2F
:1005F000221F749F3327A00D611D231F849F600D50
:10060000211D822F762F6A2F11249F5750409AF078
:10061000F1F088234AF0EE0FFF1FBB1F661F771F04
:10062000881F91505040A9F79E3F510580F00C94CF
:100630002E030C94BB025F3FE4F3983ED4F38695FF
:1006400077956795B795F795E7959F5FC1F7FE2B6F
:10065000880F911D9695879597F9089597F99F674B
:1006600080E870E060E008959FEF80EC089500243A
:100670000A941616170618060906089500240A9407
:1006800012161306140605060895092E0394000C8D
:1006900011F4882352F0BB0F40F4BF2B11F460FF1C
:1006A00004C06F5F7F4F8F4F9F4F089597FB072EBA
:1006B00016F4009407D077FD09D00E946A0307FC66
:1006C00005D03EF4909581959F4F08957095619562
:1006D0007F4F0895AA1BBB1B51E107C0AA1FBB1F78
:1006E000A617B70710F0A61BB70B881F991F5A95BE
:1006F000A9F780959095BC01CD0108950F931F93A4
:10070000CF93DF938230910510F482E090E0E09186
:100710000801F091090120E030E0A0E0B0E030975E
:1007200019F1408151810281138148175907C8F09E
:100730008417950769F4109731F012960C9312976D
:1007400013961C9327C0009308011093090122C03F
:100750002115310519F04217530718F49A01BD010C
:10076000EF01DF01F801DBCF21153105F9F0281B7E
:10077000390B2430310580F48A819B816115710524
:1007800021F0FB019383828304C09093090180933D
:100790000801FE01329644C0FE01E20FF31F81936F
:1007A000919322503109398328833AC02091060160
:1007B00030910701232B41F4209102013091030174
:1007C000309307012093060120910001309101012F
:1007D0002115310541F42DB73EB7409104015091E8
:1007E0000501241B350BE0910601F0910701E2178A
:1007F000F307A0F42E1B3F0B2817390778F0AC0144
:100800004E5F5F4F2417350748F04E0F5F1F509320
:100810000701409306018193919302C0E0E0F0E06C
:10082000CF01DF91CF911F910F910895CF93DF9367
:10083000009709F481C0FC01329713821282A091C3
:100840000801B0910901109781F420813181820F54
:10085000931F20910601309107012817390751F5A0
:10086000F0930701E093060167C0ED0120E030E05E
:10087000CE17DF0740F44A815B819E014115510587
:10088000F1F0EA01F5CFD383C28340815181840F17
:10089000951FC817D90759F488819981840F951F2E
:1008A0000296918380838A819B8193838283211521
:1008B000310529F4F0930901E09308013DC0E901F5
:1008C000FB83EA8349915991C40FD51FEC17FD07AB
:1008D00061F480819181840F951F0296E9019983CB
:1008E0008883828193819B838A83E0E0F0E0129683
:1008F0008D919C911397009719F0FD01DC01F7CFC2
:100900008D919C9111979D012E5F3F4F820F931FF8
:1009100020910601309107012817390769F43097B3
:1009200029F4109209011092080102C01382128268
:10093000B0930701A0930601DF91CF910895F89439
:02094000FFCFE7
:0609420000000A01200084
:00000001FF
