:100000000C9434000C943E000C943E000C943E0082
:100010000C943E000C943E000C943E000C943E0068
:100020000C943E000C943E000C943E000C943E0058
:100030000C943E000C943E000C943E000C943E0048
:100040000C943E000C943E000C943E000C943E0038
:100050000C943E000C943E000C943E000C943E0028
:100060000C943E000C943E0011241FBECFEFD8E04C
:10007000DEBFCDBF0E9479000C9422020C940000D8
:10008000E0ECF0E0908195FFFDCF8093C6000895ED
:10009000EF92FF920F931F93CF93DF93CAE0D0E0CC
:1000A0000F2EFAE0EF2EF12CF02DB7010E94FA018D
:1000B000062F172FC0960E944000802F912F009787
:1000C00011F0219791F781E690E00E944000DF91C6
:1000D000CF911F910F91FF90EF9008959093C500DD
:1000E0008093C40086E08093C20088E18093C100C1
:1000F000089587E690E00E946E0081E084B985B99A
:10010000C1E0C4B915B82AE02A95F1F700C0C5B915
:100110008AE18A95F1F700C015B814B8189934C06F
:1001200088EE93E025E02A95F1F7000018992CC09D
:100130000197C1F729C060E070E085E38A95F1F787
:1001400000006F5F7F4F189B04C0683A91E6790703
:10015000A1F7072E000C880B990B0E9401012EE0DD
:100160003DE242E35EE30E9465010E94C900CB01CB
:100170000E9448002FEF83ED90E321508040904093
:10018000E1F700C00000BDCF1899D5CF60E070E066
:10019000E0CF0E94D0006894B1110C945F010895E3
:1001A0000E94440188F09F5798F0B92F9927B751C2
:1001B000B0F0E1F0660F771F881F991F1AF0BA950B
:1001C000C9F714C0B13091F00E945E01B1E008950A
:1001D0000C945E01672F782F8827B85F39F0B93FFC
:1001E000CCF3869577956795B395D9F73EF49095BE
:1001F0008095709561957F4F8F4F9F4F0895E8943C
:1002000009C097FB3EF490958095709561957F4F5E
:100210008F4F9F4F9923A9F0F92F96E9BB2793950C
:10022000F695879577956795B795F111F8CFFAF41C
:10023000BB0F11F460FF1BC06F5F7F4F8F4F9F4F4D
:1002400016C0882311F096E911C0772321F09EE8AB
:10025000872F762F05C0662371F096E8862F70E011
:1002600060E02AF09A95660F771F881FDAF7880FEB
:100270009695879597F9089557FD9058440F551F07
:1002800059F05F3F71F04795880F97FB991F61F018
:100290009F3F79F087950895121613061406551F8F
:1002A000F2CF4695F1DF08C0161617061806991FFB
:1002B000F1CF86957105610508940895E894BB27F0
:1002C00066277727CB0197F908950E9478010C944F
:1002D000E9010E94DB0138F00E94E20120F0952341
:1002E00011F00C94D2010C94D80111240C945F01EC
:1002F0000E943C0170F3959FC1F3950F50E0551F8C
:10030000629FF001729FBB27F00DB11D639FAA276A
:10031000F00DB11DAA1F649F6627B00DA11D661FB9
:10032000829F2227B00DA11D621F739FB00DA11DDA
:10033000621F839FA00D611D221F749F3327A00D94
:10034000611D231F849F600D211D822F762F6A2F30
:1003500011249F5750409AF0F1F088234AF0EE0F95
:10036000FF1FBB1F661F771F881F91505040A9F7C2
:100370009E3F510580F00C94D2010C945F015F3FC9
:10038000E4F3983ED4F3869577956795B795F795FE
:10039000E7959F5FC1F7FE2B880F911D9695879576
:1003A00097F9089597F99F6780E870E060E00895F5
:1003B0009FEF80EC089500240A941616170618067D
:1003C0000906089500240A94121613061406050659
:1003D0000895092E0394000C11F4882352F0BB0FEA
:1003E00040F4BF2B11F460FF04C06F5F7F4F8F4F4D
:1003F0009F4F089597FB072E16F4009407D077FDC2
:1004000009D00E940E0207FC05D03EF4909581951C
:100410009F4F0895709561957F4F0895AA1BBB1B50
:1004200051E107C0AA1FBB1FA617B70710F0A61BF4
:10043000B70B881F991F5A95A9F780959095BC0115
:08044000CD010895F894FFCFEF
:00000001FF
