:100000000C9434000C9451000C9451000C94510049
:100010000C9451000C9451000C9451000C9451001C
:100020000C9451000C9451000C9451000C949302C8
:100030000C9451000C9451000C9451000C945100FC
:100040000C9451000C9451000C9451000C945100EC
:100050000C9451000C9451000C9451000C945100DC
:100060000C9451000C94510011241FBECFEFD8E026
:10007000DEBFCDBF21E0A6E0B1E001C01D92A831F6
:10008000B207E1F711E0A0E0B1E0E2E1FBE002C07D
:1000900005900D92A630B107D9F70E94E7010C94A4
:1000A00087050C9400008CE08093B8000895ECEB79
:1000B000F0E0108294EA908390819923ECF790917C
:1000C000B900987F9830A1F48093BB0084E88093B6
:1000D000BC00ECEBF0E080818823ECF79091B90054
:1000E000987F983139F081E0903429F480E00895C8
:1000F00081E0089580E008958093BB0084E88093B8
:10010000BC00ECEBF0E080818823ECF79091B90023
:10011000987F81E0983209F480E0089584EC809320
:10012000BC00ECEBF0E080818823ECF78091BB0011
:10013000089584E88093BC00ECEBF0E08081882394
:10014000ECF78091BB000895CF92DF92FF920F935E
:100150001F93CF93DF93C62F6A0189010E94570036
:10016000F82E811115C08C2F0E947C0001151105FD
:1001700059F0E6010C0D1D1D89910E947C00811132
:100180000AC0C017D107C1F784E98093BC0005C03D
:10019000FF24F39402C0FF24F3948F2DDF91CF91BD
:1001A0001F910F91FF90DF90CF900895AF92BF9273
:1001B000DF92EF92FF920F931F93CF93DF93182F4D
:1001C000062F5A01E9010E945700811122C0802F99
:1001D0000E947C00812F81600E945700D82E8111DF
:1001E0001BC08E010150110951F0E5017501E00EAF
:1001F000F11E0E948E008993EC16FD06D1F7E501F1
:10020000C00FD11F0E949900888384E98093BC00AD
:1002100005C0DD24D39402C0DD24D3948D2DDF915D
:10022000CF911F910F91FF90EF90DF90BF90AF9013
:100230000895DF92EF92FF920F931F93CF93DF9376
:10024000D62ECAE0D0E00F2EFAE0EF2EF12CF02DE2
:10025000B7010E943E04062F172FC0960E94F2029B
:10026000802F912F009711F0219791F78D2D90E01D
:100270000E94F202DF91CF911F910F91FF90EF90BA
:10028000DF90089580E480937C0087E880937A0073
:10029000089582E080936F008DE08093810089E073
:1002A0009DE3909389008093880078940895ECE70B
:1002B000F0E09081987F8770892B8083EAE7F0E0F7
:1002C000808180648083808186FDFDCF809178006D
:1002D000909179000895FF920F931F93CF93DF932E
:1002E000182F062FF42E81E090E00E946604EC01A6
:1002F0002FEF81EE94E0215080409040E1F700C064
:100300000000F88221E030E0AE01602F812F0E94D2
:10031000A400CE010E94FE04DF91CF911F910F91A6
:10032000FF900895CF930E94FA02809312010E94D9
:10033000FA0280930D010E94FA02809307010E9445
:10034000FA0280930B010E94FA02809309010E9435
:10035000FA02809313010E94FA02882389F18093A4
:1003600008010E94FA02809311010E94FA02809310
:100370000A0180911101882341F040910A016091A6
:100380001101809108010E946B010E94FA02809382
:1003900006010E94FA02C82F8823B9F080930C014D
:1003A0000E94FA02482F80910C016C2F0E946B0171
:1003B0000E94FA028093100108C0C0930C01F0CF94
:1003C0000E94FA02C82F8111F8CFCF9108950E94A0
:1003D000420187E690E00E9402030E9453000E94BF
:1003E00092010E944901FFCFCF93C42F6130710564
:1003F00009F05FC097B1E1E0F0E0082E02C0EE0F17
:10040000FF1F0A94E2F79E2B97B998B19E2798B9DF
:100410004AE04A95F1F700C098B19E2B98B95AE18D
:100420005A95F1F700C098B19E2798B997B19E27C9
:1004300097B926B130E0082E02C0359527950A9469
:10044000E2F720FD3FC048EE53E095E09A95F1F7C2
:10045000000026B130E02E233F23232B99F5415095
:10046000510999F72FC060E070E045E34A95F1F734
:1004700000006F5F7F4F86B190E08E239F23892B12
:1004800021F0683A51E6750781F7072E000C880BBA
:10049000990B0E9445032EE03DE242E35EE30E9499
:1004A000A9030E940D03DC01CB016C2F0E941901EE
:1004B00016C06230710599F40E9457016C2F0E949A
:1004C00019010DC026B130E0A90102C0559547952C
:1004D0008A95E2F740FDC7CF60E070E0D6CFCF91BC
:1004E0000895FF920F931F93CF93DF93082FF62E5B
:1004F000142F81E090E00E946604EC0121E030E0DE
:10050000AC016F2D802F0E94D6008881612F90E072
:100510000E941901CE010E94FE04DF91CF911F912C
:100520000F91FF9008951F920F920FB60F92112412
:100530002F933F934F935F936F937F938F939F93EB
:10054000AF93BF93EF93FF936091120170E041E688
:1005500080E090E00E94F40160910D0170E042E6BD
:1005600081E090E00E94F4016091070170E043E6B1
:1005700080E090E00E94F40160910B0170E044E69D
:1005800081E090E00E94F4016091090170E045E68D
:1005900080E090E00E94F4016091130170E046E673
:1005A00081E090E00E94F4016091060180910801D1
:1005B00070E047E690E00E94710288E790E00E94B8
:1005C000F202FF91EF91BF91AF919F918F917F9137
:1005D0006F915F914F913F912F910F900FBE0F90B0
:1005E0001F901895E0ECF0E0908195FFFDCF80938F
:1005F000C6000895E0ECF0E080818823ECF780915C
:10060000C60008959093C5008093C40086E080934F
:10061000C20088E18093C10008950E941403689489
:10062000B1110C94A30308950E94880388F09F578A
:1006300098F0B92F9927B751B0F0E1F0660F771F06
:10064000881F991F1AF0BA95C9F714C0B13091F0FC
:100650000E94A203B1E008950C94A203672F782FA3
:100660008827B85F39F0B93FCCF3869577956795C1
:10067000B395D9F73EF490958095709561957F4F2D
:100680008F4F9F4F0895E89409C097FB3EF49095D3
:100690008095709561957F4F8F4F9F4F9923A9F05B
:1006A000F92F96E9BB279395F695879577956795EA
:1006B000B795F111F8CFFAF4BB0F11F460FF1BC02E
:1006C0006F5F7F4F8F4F9F4F16C0882311F096E9C1
:1006D00011C0772321F09EE8872F762F05C066236F
:1006E00071F096E8862F70E060E02AF09A95660F28
:1006F000771F881FDAF7880F9695879597F90895E1
:1007000057FD9058440F551F59F05F3F71F04795C2
:10071000880F97FB991F61F09F3F79F087950895A7
:10072000121613061406551FF2CF4695F1DF08C0C6
:10073000161617061806991FF1CF869571056105E3
:1007400008940895E894BB2766277727CB0197F98B
:1007500008950E94BC030C942D040E941F0438F0DD
:100760000E94260420F0952311F00C9416040C949A
:100770001C0411240C94A3030E94800370F3959F22
:10078000C1F3950F50E0551F629FF001729FBB2788
:10079000F00DB11D639FAA27F00DB11DAA1F649F24
:1007A0006627B00DA11D661F829F2227B00DA11DD7
:1007B000621F739FB00DA11D621F839FA00D611D5D
:1007C000221F749F3327A00D611D231F849F600D7E
:1007D000211D822F762F6A2F11249F5750409AF0A7
:1007E000F1F088234AF0EE0FFF1FBB1F661F771F33
:1007F000881F91505040A9F79E3F510580F00C94FE
:1008000016040C94A3035F3FE4F3983ED4F386955B
:1008100077956795B795F795E7959F5FC1F7FE2B9D
:10082000880F911D9695879597F9089597F99F6779
:1008300080E870E060E008959FEF80EC0895002468
:100840000A941616170618060906089500240A9435
:1008500012161306140605060895092E0394000CBB
:1008600011F4882352F0BB0F40F4BF2B11F460FF4A
:1008700004C06F5F7F4F8F4F9F4F089597FB072EE8
:1008800016F4009407D077FD09D00E94520407FCAB
:1008900005D03EF4909581959F4F08957095619590
:1008A0007F4F0895AA1BBB1B51E107C0AA1FBB1FA6
:1008B000A617B70710F0A61BB70B881F991F5A95EC
:1008C000A9F780959095BC01CD0108950F931F93D2
:1008D000CF93DF938230910510F482E090E0E091B5
:1008E0001601F091170120E030E0A0E0B0E0309771
:1008F00019F1408151810281138148175907C8F0CD
:100900008417950769F4109731F012960C9312979B
:1009100013961C9327C0009316011093170122C051
:100920002115310519F04217530718F49A01BD013A
:10093000EF01DF01F801DBCF21153105F9F0281BAC
:10094000390B2430310580F48A819B816115710552
:1009500021F0FB019383828304C09093170180935D
:100960001601FE01329644C0FE01E20FF31F81938F
:10097000919322503109398328833AC02091140180
:1009800030911501232B41F4209102013091030194
:100990003093150120931401209100013091010141
:1009A0002115310541F42DB73EB740910401509116
:1009B0000501241B350BE0911401F0911501E2179C
:1009C000F307A0F42E1B3F0B2817390778F0AC0172
:1009D0004E5F5F4F2417350748F04E0F5F1F50934F
:1009E0001501409314018193919302C0E0E0F0E07F
:1009F000CF01DF91CF911F910F910895CF93DF9396
:100A0000009709F481C0FC01329713821282A091F1
:100A10001601B0911701109781F420813181820F66
:100A2000931F20911401309115012817390751F5B2
:100A3000F0931501E093140167C0ED0120E030E070
:100A4000CE17DF0740F44A815B819E0141155105B5
:100A5000F1F0EA01F5CFD383C28340815181840F45
:100A6000951FC817D90759F488819981840F951F5C
:100A70000296918380838A819B819383828321154F
:100A8000310529F4F0931701E09316013DC0E90107
:100A9000FB83EA8349915991C40FD51FEC17FD07D9
:100AA00061F480819181840F951F0296E9019983F9
:100AB0008883828193819B838A83E0E0F0E01296B1
:100AC0008D919C911397009719F0FD01DC01F7CFF0
:100AD0008D919C9111979D012E5F3F4F820F931F27
:100AE00020911401309115012817390769F43097C6
:100AF00029F4109217011092160102C0138212827B
:100B0000B0931501A0931401DF91CF910895F8944B
:020B1000FFCF15
:060B1200000018012000A4
:00000001FF
