S01700004763634170706C69636174696F6E312E737265635B
S11300000C943E000C945B000C945B000C945B001D
S11300100C945B000C945B000C945B000C945B00F0
S11300200C945B000C945B000C945B000C945B00E0
S11300300C945B000C9470000C945B000C945B00BB
S11300400C945B000C945B000C945B000C945B00C0
S11300500C945B000C945B000C945B000C945B00B0
S11300600C945B000C945B000C945B000C945B00A0
S11300700C945B000C945B000C945B0011241FBE79
S1130080CFEFD0E1DEBFCDBF11E0A0E0B1E0ECE006
S1130090F1E002C005900D92A230B107D9F721E03A
S11300A0A2E0B1E001C01D92A230B207E1F70E94C4
S11300B06B000C9484000C94000082E080936F0029
S11300C08CE08093810082E49FE090938900809388
S11300D08800789408958FEF81B90E945D00FFCF66
S11300E01F920F920FB60F9211248F9380910001EB
S11300F08058809300018091000182B98F910F9004
S10F01000FBE0F901F901895F894FFCFCD
S105010C80006D
S9030000FC
