:020000040000FA
:100000000200F91200241201251201131201291213
:10001000012D1201311200CE12013E1201351201E2
:100020003902013FE4F5A753D9BF22020120A2AF54
:10003000E433F50DC2AFAEA975A91453B6BF75E58B
:1000400001E5A930E7FBE50C4FF5B58EA943B640B5
:1000500085B50E75B5207F04120108EF30E20CE57E
:100060000E20E207E5B5420E75B520E50E20E2044C
:10007000EF30E203750901E50E20E304EF30E503FC
:10008000750801E50E30E103750A01E50E30E00365
:10009000750B01E50D24FF92AFE50E30E4047FFF00
:1000A000DFFE223082FD120003D295D2931200E7C8
:1000B0007F0212011AE50A6007E4F50AD293C2959D
:1000C0002083F2D295C2937F8012002E80E7E5C88C
:1000D000540453C8FB75CD3475CC8D75CB3475CABB
:1000E0008D43C80442C82275B520E4F50CF509F526
:1000F00008F50BF50A43A6012212013D787FE4F6CC
:10010000D8FD75810F0200A3EF4490F5AC0000000C
:10011000AFAD2275A52875F23F22EF540F420C2295
:10012000C2CFB2953275C7042275E3402275A90487
:100130002275B6402275EF062275A8A0222222223F
:00000001FF
